:020000041000EA
:1000000000B5324B212058609868022188439860DF
:10001000D860186158612E4B002199600221596106
:100020000121F02299502B49196001219960352056
:1000300000F044F80222904214D00621196600F024
:1000400034F8196E01211966002018661A6600F04E
:100050002CF8196E196E196E052000F02FF8012189
:100060000842F9D1002199601B49196000215960AB
:100070001A491B48016001219960EB211966A021F2
:10008000196600F012F800219960164914480160C1
:100090000121996001BC002800D000471248134993
:1000A000086003C880F30888084703B5996A0420EC
:1000B0000142FBD001200142F8D103BD02B5186610
:1000C0001866FFF7F2FF186E186E02BD00000240BE
:1000D000000000180000070000035F00212200005C
:1000E000F4000018222000A00001001008ED00E03C
:1000F00000000000000000000000000074B24E7A12
:1001000000200420F7010010CB010010CD010010E9
:10011000C9010010C9010010C9010010C901001077
:10012000C9010010C9010010C9010010CF01001061
:10013000C9010010C9010010D1010010D301001045
:10014000C1010010C1010010C1010010C101001067
:10015000C1010010C1010010C1010010C101001057
:10016000C1010010C1010010C1010010C101001047
:10017000C1010010C1010010C1010010C101001037
:10018000C1010010C1010010C1010010C101001027
:10019000C1010010C1010010C1010010C101001017
:1001A000C1010010C1010010C1010010C101001007
:1001B000C1010010C1010010C1010010C1010010F7
:1001C000EFF30580103800BE00BE00BE00BE00BECA
:1001D00000BE00BEF2EB887100E7001020E70010BF
:1001E0003802001090A31AE71E481F49086006C88D
:1001F00081F3088810471D480068002801D019487D
:10020000F3E70DA40ECC002902D000F012F8F9E7B4
:100210001749184A002000E001C19142FCD116495B
:100220008847164988471649884700BEFDE701C937
:1002300001C29A42FBD3704720E70010C0000020A3
:100240007C260020DC0C01100000042000000420AB
:10025000DC0C01100010042000100420000000003D
:10026000704700000000000008ED00E0000000D032
:100270007C260020907B0020255D0010A903001043
:100280001D5D0010F8B5C0460448054B10B583420B
:1002900003D0044B002B00D0984710BD7C260020D3
:1002A0007C2600200000000006480749091A8B1030
:1002B000C90FC91810B5491003D0044B002B00D04A
:1002C000984710BD7C2600207C26002000000000FE
:1002D00010B5074C2378002B09D1FFF7D5FF054B4C
:1002E000002B02D0044800E000BF0123237010BDA2
:1002F000482A00200000000008CF0010054B10B570
:10030000002B03D00449054800E000BFFFF7CCFFF5
:1003100010BDC046000000004C2A002008CF00108D
:1003200010B500F061FA164B164C1968206801F000
:1003300057FD00281CD0206800F052FE206801F014
:100340000BFE002818D0206800F04AFE206801F05B
:1003500019F90D4805F068FE0C4B2068196801F08A
:100360001DFA00F04DFAFA20800009F019FDF8E7B7
:10037000074805F059FEDEE7064805F055FEE2E7BE
:10038000882D0020842D00206CCF0010802D0020AF
:1003900008CF00103CCF001010B5024800F056FB0B
:1003A00010BDC046882E0020F0B585B005F0ECFDEC
:1003B000FA20C00002F0C4FC5D4805F035FE5D4D3A
:1003C00028000AF09FFB5C4C002834D1200000F08C
:1003D0007BFB002803D1594805F026FEFEE7584E66
:1003E000584B30001C600AF08DFB574D002837D168
:1003F000280001F0D7FA002803D1544805F014FE74
:10040000FEE7534F38000AF07DFB524E00283CD1E6
:10041000300000F0C9FD002833D04F4B4F481E601C
:1004200005F002FE300000F0D1FC002839D14C4824
:1004300005F0FAFDFEE78022802392010192E1227D
:100440005B01484902930093D2020023200000F090
:10045000AFFA45480CF014FA28000AF06FFBB5E734
:10046000A0231B0402931023019303330093112252
:1004700028003E49013B01F08BFA30000AF05EFB98
:10048000B6E73B4805F0D0FDFEE7C02380222900F7
:1004900030009B01520100F08BFC38000AF04EFB4B
:1004A000B6E7344805F0C0FD334F38000AF02AFBA8
:1004B000324D00281CD12021280000F07FF80028B0
:1004C00012D02F4B00261D60802202232D4900935D
:1004D0002D482B000196920009F04AFB012810D00C
:1004E0002A4805F0A1FDFEE7294805F09DFDFEE73D
:1004F00032002100280000F055F838000AF01EFBF9
:10050000D9E78022234C00902B002000224901963D
:10051000920009F02DFB012803D0204805F084FD4E
:10052000FEE709F037FB1E4805F07EFDFEE7C046FA
:1005300088CF00107C2D0020882E002094CF001042
:10054000702D0020802D0020282E0020B0CF00101C
:10055000782D0020642E0020842D0020ECCF001088
:1005600004D00010004003409903001000C0034075
:10057000D0CF001028D00010742D0020402E002075
:10058000882D002050D00010F906001058D000101F
:1005900034D000102103001078D000107CD000105F
:1005A000A0D000100023436003608360C1604361FA
:1005B00002618361C36103627047C04610B50022C7
:1005C000040008004C2108F087FD2060431E98417C
:1005D000C0B210BDF0B557464E46DE46454BC0B5DD
:1005E0009A460600AAB002AC15AD3068002856D075
:1005F00001222100524208F053FE0128F5D1E7798B
:10060000402F4DD85346562069462B80A388226838
:1006100009189C46A3790A8069460230120C091811
:100620000A8099466246EA804A465E212A726A46F4
:10063000A368521813806A4602311B0C52186F725D
:100640001380002F34D10E21280001F085FB622396
:100650006B4401900422180001A903F06DFF1223DE
:1006600099464B462900F0689AB200F0F5FA002846
:1006700016D03069002805D04A46290000F0BEFE99
:1006800000282ED008F00CFAB3690133B361F36986
:100690004B44F36108F010FA30680028A8D1FEE757
:1006A00008F0FEF9B3680133B36008F005FA9CE77F
:1006B00062236B443A0005A9180003F03DFF0E23A6
:1006C0009B46BB44594604332800994601F044FB3D
:1006D0005B4601900422E81801A9B94403F02CFFFD
:1006E000BFE708F0DDF9B3680133B36008F0E4F95F
:1006F000C8E7C046A55A000010B5002801D0FFF792
:1007000069FF024805F090FC72B6FEE7B8D0001011
:10071000F0B5CE46474680B50D00140083B0002AE0
:100720004ED0CE79402E4BD812369E4248D8022267
:100730002C49200003F000FF6A782B7812021A433C
:10074000AB7869791B041343EA78090212061A434D
:100750002B79287A1943AB79170A9C46EB7999468D
:100760006B7A1B020343A87A00041843EB7AA27049
:10077000E770170C120E6271624622724A461B061F
:100780000343A171090AE171190AE1721902A37206
:10079000090E1B0E2771627221736373EA79A01C24
:1007A000002A14D112250E273900200001F0D4FAB6
:1007B0000422019001A9E01903F0BEFEAE4200D070
:1007C0000025280003B0C0BCB946B046F0BD2900E2
:1007D0000C300C3103F0B0FEED792F0012350E37DE
:1007E000E2E7C046D4D00010192010B501F0E8FBB4
:1007F000D02380221B06920400205A6210BDC046FE
:10080000D0218020064A090613788004002B04D0EA
:10081000486101214B40137070478861F9E7C04679
:100820006420002072B6FEE772B6FEE7A023DB0567
:10083000F0B5454698465B4B4E469946DE465746D0
:1008400043464A46E0B59C5883B0002C4BD0002369
:1008500001272E269A46544D1CE05A8D121A002A62
:1008600015D0596C914200D911001A685963944609
:100870005A6910185A6A92010192A022D205934631
:10088000019A5A441060604650609F55D161631EC2
:100890001C4028D0200002F067FF3B004246834006
:1008A0004946800053502B58002BF0D0596B00293B
:1008B00008D09A8DD86952180138024092B29A85B0
:1008C00052465A6352469A559A5D002ADFD1998D55
:1008D0005A8D9142DBD09A8D598D90B28A42BCD903
:1008E000DA69121ABBE7A023DB0598462F4B99461D
:1008F00043464A469C58002C4CD0002301272E2604
:100900009A46294D1CE05A8D121A002A15D0596CAE
:10091000914200D911001A68596394465A69101817
:100920005A6A92010192A022D2059346019A5A4432
:100930001060604650609F55D161631E1C4029D0F5
:10094000200002F011FF3B00424683404946103030
:10095000800053502B58002BEFD0596B002908D042
:100960009A8DD86952180138024092B29A8552463F
:100970005A6352469A559A5D002ADED1998D5A8D56
:100980009142DAD09A8D598D90B28A42BBD9DA69F8
:10099000121ABAE703B0F0BCBB46B246A946A0465D
:1009A000F0BDC0460C040000A82D00201C0400006F
:1009B000F0B5C64600B58360069B01604260C36027
:1009C000002200232E21089E079D03858661438512
:1009D000C561838504004254012001316054013116
:1009E0007000625403306363A363E363236403F022
:1009F00067FD071E25D0F31CC31872421A4013006E
:100A000090461700043B186068002761033003F02C
:100A100057FD002806D0EB1CC3186D421D402B1F4C
:100A20001860280031006061404602F0CBFE42466B
:100A30000B000548390005F07FFB200080BCB8465C
:100A4000F0BD00239846DFE7D8D00010302370B502
:100A5000C35C0400002B30D00123006AA025834032
:100A6000174AED05AB50174B80219C46820162442A
:100A7000490413680B42FCD10123626A1049934078
:100A80006B50104B80219C469201624449041368CC
:100A90000B42FCD109F07CFF606A09F079FF236901
:100AA000002B03D0043B186803F028FD6369002B7A
:100AB00003D0043B186803F021FD200070BDC04640
:100AC000440400000C000050F0B5D6464F464646A0
:100AD0003023C0B5C35C04000020002B04D0E0BC70
:100AE000BA46B146A846F0BD6168206802F020FA17
:100AF0000221A06801F04AFA0221E06801F046FAFA
:100B0000002301220821206802F0A2FA01212068B6
:100B100002F0DAFAA369454A991E91425DD85A1E3D
:100B200013425AD1E369002B57D05A1E134254D1B5
:100B3000012009F037FF2062012009F033FF266A07
:100B40002768F30299463A4B050060629F4265D0E0
:100B5000A8231B039A46A0231B039846A06902F012
:100B600003FE4B46334A8001134018435346184353
:100B7000B301A026F605B4462F496344014320691A
:100B80001F605860012040429860D960EB0213401A
:100B900042461343112261691343AA016244116062
:100BA0000021264E5760916013613378002B1FD0CF
:100BB0000123AB400F2D18DC214A1360214BAD00FF
:100BC000EC5001223023E2542D3BBB640023A3638D
:100BD0008023DB000120636481E71B4805F024FAD1
:100BE0001A4805F021FA012079E7194A1360E5E770
:100BF000184D0B20290001F029FB29000C2001F0E1
:100C000025FB01210B2001F0E9FA01210C2001F064
:100C1000E5FA0123656A27683370C9E7B8231B0327
:100C20009A46B0231B03984698E7C046FE7F000013
:100C300000800340FD7F00FF21040000867B002030
:100C400004240050A82D0020F8D000102CD1001052
:100C5000142400502D08001070B5C64600B50029B8
:100C60004ED0002A4CD0EFF3108C72B6848D438D99
:100C7000013CE41AC369013B23409BB200249A4221
:100C800038D80E5D438D45690134EE54458DC669F3
:100C90000135731E2B409BB24385A3B29A42F0D814
:100CA0002E23C35C002B1FD1828D438D9A421BD013
:100CB000428D838D91B29CB2F61A9A4200D30E1BDC
:100CC00001222E23C254426CB24200D93200416943
:100CD000436A05684263A020C00580469B014344E7
:100CE000091919605D60DA618CF31088012040BC3D
:100CF000B04670BDC36B0133C363036CD21802648A
:100D00000020F4E78B18F0B5DE464E4657464546C0
:100D10009B4601232E249946E0B5002A3CD00D784D
:100D2000EFF3108272B6438DC7690133013F3B4038
:100D3000878D9BB2BB4235D0478D4669F5554385BB
:100D4000035D002B23D1858D438D9D421FD0438DA4
:100D5000858D9846AFB29BB2A84500D2C3694D4677
:100D60000555456CDB1B9D4200D91D000368A0267C
:100D700098464369F6059C46B246BC446646436ABB
:100D800045639B0153441E6046465E60DD6182F30D
:100D9000108801315945C2D1F0BCBB46B246A946C4
:100DA000A046F0BD836B0133836382F31088B7E7FD
:100DB00010B5016020240021C160016141618161A1
:100DC000C16101554260836010BDC046202370B5EB
:100DD000C65C0500002E15D0446883689C4207D38A
:100DE00014E080235B019C46AB686444A3420CD9A9
:100DF0002100286800F082FF0028F2D12100074876
:100E000005F09AF90026300070BD6C680023EC6094
:100E10002C616C61AB61EB61F5E7C04650D100100D
:100E2000F0B54546DE4657464E46E0B505004068FB
:100E3000A9689FB0884200D390E000238146824693
:100E400004009B4600279846A04214D82300123382
:100E50008B4210D802232100286804AA00F0D0FE9B
:100E6000002807D002AB1B7AA52B03D102AB5B7A1B
:100E70005A2B23D0A96801348C4201D26868E3E779
:100E80004346B8461F0043460121002B5ED053461F
:100E90006B614B46EB605B46EB614B46AF615A467C
:100EA000019300975346374805F046F901201FB0DB
:100EB000F0BCBB46B246A946A046F0BD0C220021BC
:100EC00006A803F033FB0C232868A11C06AA00F037
:100ED00097FE0028CED002ABDB7D0393402B44D895
:100EE0001233AA68E61896423AD82100286809AA5F
:100EF00000F086FE02900028BCD002ABDB7D09AA80
:100F00000E33D11805A8042203F016FB039909A893
:100F10000E3100F021FF059B98422CD1A9683200C8
:100F2000069BB14200D86A68002F06D04046181AC6
:100F3000002802DC4A465446434601208446A24625
:100F4000914698463400029FE34495E76B689A46C1
:100F50000023D14600279B46002198E78246F7E709
:100F6000094805F061F8A96885E71900074805F008
:100F7000E3F8A9687FE72100054805F0DDF8A968D6
:100F800079E7C046C8D1001090D1001078D1001088
:100F9000ACD10010202210B50300805C002802D0E4
:100FA0001800FFF73DFF10BD4268836810B59A42F4
:100FB00014D28021C9038B4210D813431B05190D8D
:100FC000002B0BD1C260026142610122203381619A
:100FD000C161C254FFF724FF012000E0002010BDD2
:100FE000F0B557464546DE464E462023E0B5C75C81
:100FF0000500A1B0002F42D0C369002B49D004697D
:10100000564805F011F8EE69AB696A6929695448D8
:10101000009605F091F8AB686A68991A8846934281
:1010200000D193E0002100268B464E49059703919D
:10103000A24214D822001232934210D3022321007C
:10104000286806AA00F0DCFD002807D004AB1B7A54
:10105000A52B03D104AB5B7A5A2B1ED0AB680134AD
:101060009C4214D20136464501D26A68E0E7059FEA
:1010700059463D4805F060F83C4804F0D5FF38007B
:1010800021B0F0BCBB46B246A946A046F0BD6C6894
:10109000E8E7374804F0C8FFF1E708AF0C22002169
:1010A000380003F043FA0C233A002868A11C00F032
:1010B000A7FD0028D2D0FB799946402B40D81223B7
:1010C0004B449A460493AB68A2449A4533D8210016
:1010D0002868049B0BAA00F093FD0028BED0FB7982
:1010E0000BAA0E33D11807A8042203F025FA4946AB
:1010F0000BA80E3100F030FE079B984229D1089BC7
:10110000BA799946F979BB88039801910092210038
:101110004A4605F011F801239C46AB69E3444B4570
:10112000A5D0AB68534501D86A689246049A5446E4
:101130009446664497E70F4804F076FFAB688EE765
:1011400019000D4804F0F8FFAB6888E700239B46C0
:101150008EE72100094804F0EFFF7FE73CD2001042
:101160005CD2001090D20010C8D20010ECD2001057
:1011700014D2001090D1001078D10010ACD1001022
:10118000F0B54746CE4680B50E00070014001D009E
:101190009BB0002A10D0002B0ED000230C222B6015
:1011A0000021200003F0C2F97B68B34204D8330069
:1011B000BA681233934206D9002738001BB0C0BC6E
:1011C000B946B046F0BD02236A463100386800F0E7
:1011D00017FD0028F0D06B461B78A52BECD16B4691
:1011E0005B785A2BE8D10C22002102A803F09EF96B
:1011F0000C233868B11C02AA00F002FD0028DBD0E5
:101200006B46DB7B9846402B2BD8122343449946F0
:10121000F218BB689A4220D838684B46310005AABC
:1012200000F0EEFC071EC7D06B46DB7B05AA0E3331
:10123000D11801A8042203F07FF9414605A80E3118
:1012400000F08AFD019B834210D10C22200002A9EC
:1012500003F072F94B462B60AFE7074804F0E4FE59
:10126000AAE71900054804F067FFA5E73100044824
:1012700004F062FFA0E7C04690D1001078D10010C2
:10128000ACD10010F0B5454657464E46DE46E0B5B7
:10129000802688467601464405000C0000279DB054
:1012A000B1421CD2AB68A34219D96A68944213D3E5
:1012B0002200123293420FD302232100286802AA8F
:1012C00000F09EFC002807D002AB1B78A52B03D1B1
:1012D00002AB5B785A2B35D00134A642E2D8EB69D9
:1012E000BB4266D9DB1BEB612B69984523D89E4234
:1012F00021D9AA686B68964200D31E00D11A8A468B
:101300009A4260D004AB994607AB00249846002768
:1013100007E0AB6801369E4200D36E680134A245F7
:1013200050D04B464246310028000497FFF728FF73
:101330000028EED02E611DB0F0BCBB46B246A946D7
:10134000A046F0BD04AB9A460C220021180003F021
:10135000EDF80C2352462868A11C00F051FC00282F
:10136000BAD05346DB799B46402B36D81233E2186D
:101370009146AA6891452CD807AA210028680192B5
:1013800000F03EFC0028A7D05346019AD979944634
:101390000E316144042203A803F0CEF859460198A7
:1013A0000E3100F0D9FC039B98421BD14C4601370B
:1013B00093E70023EB61AB6143466A68EB602A6107
:1013C0006A61B8E76B6800222B61EA616B61AA6110
:1013D000B1E7074804F028FE7EE71900054804F04D
:1013E000ABFE79E72100044804F0A6FE74E7C0468E
:1013F00090D1001078D10010ACD10010F0B5454666
:101400005746DE464E462023E0B5C35C80460F00BB
:10141000150087B0002B3FD000293DD0002D3BD0D8
:1014200080235B019D4200D982E0C26883680192FB
:101430009A4252D2802149018C46019A140B24030E
:1014400011006444AA18A2422ED8019A120500D1B4
:1014500088E0FF22934601329246019E0DE043460A
:101460003A0018684946230000F000FC002858D0D4
:1014700043463F199B682D1B32D05C465246344090
:10148000141BAC4200D92C00B14636199E42E6D955
:101490003549364804F050FE002007B0F0BCBB468A
:1014A000B246A946A046F0BD0A0501D10C0064442D
:1014B000A34248D94346DB69002B03D021004046B4
:1014C000FFF7E0FE43462100186800F017FC0028F3
:1014D0003DD0434601949B68BBE742680192A9E76F
:1014E0009E4201D343465E6843460C220021DE60E3
:1014F00003A803F01BF8002340460293019902ABB6
:1015000003AAFFF73DFE002827D04346DB69039975
:101510005A1C002B12D04346019C99615C61DA6130
:10152000BBE723004A461049114804F005FEB3E723
:101530002A000D490F4804F0FFFDADE74346019A2C
:101540001A610122E7E74246526801927DE72200D4
:101550000549094804F0F0FD9EE70199074804F0A9
:10156000EBFD99E7019CA5E710D3001060D30010B4
:1015700090D3001018D3001038D30010C4D300103B
:10158000C0687047F0B5DE46454657464E462023B4
:10159000E0B5C35C05009B46B7B0002B00D1C5E0A9
:1015A000C369002B00D1B3E0826843680469D31A91
:1015B00098466D4804F038FD4346002B00D1CAE040
:1015C00000229246694A00260392694AAB68049257
:1015D0005A4605926A68944214D3220012329A4203
:1015E00010D802232100286807AA00F009FB002870
:1015F00007D004AB1B7BA52B03D104AB5B7B5A2B21
:1016000019D0AB6801349C4213D201364645E1D370
:10161000059B9B465146574804F08EFD564804F002
:1016200003FD584637B0F0BCBB46B246A946A046BB
:10163000F0BD6C68E9E709AF0C220021380002F028
:1016400075FF0C233A002868A11C00F0D9FA002885
:10165000D7D0FB799946402B77D81233AA68E11886
:1016600091426DD82100286821AA00F0C9FA00280B
:10167000C7D0FB7921AA0E33D11808A8042202F0A2
:101680005BFF494621A80E3100F066FB089B98429B
:1016900064D1099B0C229946FB79002121A89B4625
:1016A00002F044FF00232100099328003B0021AAF7
:1016B000FFF766FD002835D0099F522F2CD83B003C
:1016C000210028680CAA00F09BFA002831D05B4664
:1016D0004A46009321003B00039804F02DFD0123AE
:1016E0009C46AB69E2444B4592D0E3199946AB68FE
:1016F0004A46994500D36A682100049804F01CFD0D
:10170000AB68994501D36A6891464C46F6197DE766
:101710001A4804F089FC84E752233A001849194812
:1017200004F00AFD2100184804F006FD00239B4642
:1017300077E73B0022001249144804F0FDFCF1E772
:10174000134804F071FCAB685CE71900114804F021
:10175000F3FCAB6856E700239A465BE721000E488E
:1017600004F0EAFC4DE7C0469CD40010C0D4001041
:1017700014D5001034D5001060D5001070D40010BE
:10178000ECD300100CD40010F0D4001040D40010A2
:1017900090D1001078D10010ACD10010F0B54546C2
:1017A000DE4657464E462023E0B5C35C050088461A
:1017B0009B46B3B0002B00D1B1E0C369002B00D130
:1017C0009EE0826843680469D31A9946644804F02D
:1017D0002BFC4B46002B00D1B9E0002292465A4622
:1017E0000026AB6801926A68944214D32200123238
:1017F0009A4210D802232100286803AA00F000FAB8
:10180000002807D002AB1B79A52B03D102AB5B7973
:101810005A2B19D0AB6801349C4213D201364E4585
:10182000E1D3019B9B4651464E4804F085FC4E484F
:1018300004F0FAFB584633B0F0BCBB46B246A946AA
:10184000A046F0BD6C68E9E70C22002105A802F073
:101850006DFE0C232868A11C05AA00F0D1F9002810
:10186000D8D002ABDF7C402F6BD83B00AA68123384
:10187000E118914260D8210028681DAA00F0C0F943
:101880000028C7D002ABDB7C1DAA0E33D11804A8F8
:10189000042202F051FE39001DA80E3100F05CFA5E
:1018A000049B984256D1059B0C2200211DA89B4603
:1018B00002F03CFE002321000593280005AB1DAA81
:1018C000FFF75EFC002825D0059F522F1CD83B0057
:1018D0002100286808AA00F093F9002825D03A00D2
:1018E000404608A9FFF70EFA01239C46AB69E24483
:1018F0005B4596D0AB68E4199C4213D2F6198EE78B
:101900001A4804F091FB95E752233A001849194808
:1019100004F012FC22001849184804F00DFC0023C2
:101920009B4687E76C68F61979E73B00220010496F
:10193000134804F001FCEDE7124804F075FBAB68B6
:1019400069E73900104804F0F7FBAB6863E7002350
:101950009A4668E721000D4804F0EEFB5AE7C046BE
:10196000B0D5001010D6001038D6001088D5001061
:10197000ECD300100CD40010D0D50010E8D5001026
:1019800040D4001090D1001078D10010ACD10010DC
:101990008360019B0160C360009B42600361029B06
:1019A00043617047F0B5CE464746040080B5012735
:1019B00083B04169006809F007F8A068012100F0D0
:1019C000E5FA2069012100F0E1FA0121E06800F068
:1019D000DDFA606800F0F4FA3A006368D0269A40B5
:1019E00003236B44994636067262904672619F23C8
:1019F0004A4601AD137000210322280002F096FD33
:101A000043464946B361012220680BF0F5F92A00EC
:101A10000323002120680BF087F9636800209F40B2
:101A200077612B786A781B0412021343AA78134358
:101A30000322013B52429A424041C0B203B0C0BCB3
:101A4000B946B046F0BDC046F0B50124DE464E466C
:101A5000574645462200E0B5436883B09A406B463E
:101A6000D0250E008146591D06232D06AA61006867
:101A700001220B700BF0C0F94B465B689C406C6117
:101A800001F008FAFA2204000D00002330000021C2
:101A9000920002F0B3FC8023001969411B06060086
:101AA0000F00994202D30126234F76426B469D1DBB
:101AB00005239B466B46DC1D29E05B462B7000230B
:101AC0002370013398464B4642465B6829009A4092
:101AD0001300D022120693614B46924618680122E9
:101AE0000BF08AF94B4622001868002101230BF005
:101AF0001BF94B4642465B689A40130052465361BD
:101B000023789B0716D40A20002101F005F901F083
:101B1000C1F932003B00121A8B41002BCDDC01D100
:101B2000002ACAD1002003B0F0BCBB46B246A94689
:101B3000A046F0BD0120F6E7FFFFFF7FF0B5DE46CF
:101B400046465746C0B582B00E00804601F0A2F965
:101B5000FA2204000D00002330000021920002F060
:101B60004DFC8023001969411B0606000F009942B5
:101B700002D30126214F764205239B466B46DC1D8E
:101B800029E06B465A469A7100230125237043468B
:101B90002A005B689A401300D022120693614346E4
:101BA00018686B469246991D01220BF025F94346B1
:101BB00022001868002101230BF0B6F843462A00E2
:101BC0005B6801209A4013005246536123781D42FE
:101BD0000DD001F0B5F801F05DF932003B00121AAA
:101BE0008B41002BCDDC01D1002ACAD1002002B0EC
:101BF000E0BCBB46B246A846F0BDC046FFFFFF7F33
:101C0000F0B5C64600B506001700984682B0002A17
:101C100027D080255C1EED03AC4222D2A94220D2FF
:101C2000CB18AB421DD80322012401AB1A700A0C59
:101C300049BA598021005A704268D02591402D063A
:101C40000422A961006819000BF0D6F843463A0057
:101C5000002130680BF068F8736801209C406C61CB
:101C600000E0002002B080BCB846F0BDF0B5C6462A
:101C700000B506000C0017001D0082B0002A38D005
:101C8000013BFF2B35D88023DB03994231D24A191F
:101C90009A422ED8FF2380220B405B1952009342B8
:101CA00027D80121FFF7D0FE002822D0022301A966
:101CB0000B70230C64BA4C80012422004B707368B3
:101CC00030689A401300D022120690469361042295
:101CD0000BF092F839002A0030680BF08DF8736829
:101CE000FA219C40434630005C614900FFF726FF23
:101CF00000E0002002B080BCB846F0BD802370B583
:101D00000C0B050082B02403DB039C4204D20121AA
:101D1000FFF79AFE002802D1002002B070BD2023F8
:101D200001A90B70230C240A8C7001244B70002332
:101D30002200CB706B68D0269A403606B2612868C4
:101D400004220BF059F86B68FA219C40280074615A
:101D50004900FFF7F3FEE0E770B500293CD04618D4
:101D60000500012001241D49404223002A78013545
:101D7000424013405B4252080B40534022001A403D
:101D800052425B080A405A40230013405B4252080B
:101D90000B40534022001A4052425B080A405A400E
:101DA000230013405B4252080B40534022001A406C
:101DB00052425B080A405A402300200013405B4215
:101DC0000B40520853401840404208405B085840BE
:101DD000AE42CAD1C04370BD0020FCE72083B8EDFD
:101DE000F0B5DE4657464E4645468146E0B54C487E
:101DF000BBB0039104F018F94846FFF7C1FB00237C
:101E00009B46484B12AD0493474B9A46474B05936C
:101E10005B463021049A06A803F022FF04A88446FA
:101E20003E23634446220021180002F07FFB012379
:101E30005B442B609846C823AB8053469B6A06A838
:101E4000AB600AF025FD06A90200E87115A802F0B2
:101E500073FB52232900039825AAFEF759FC041EA0
:101E600048D04846FFF78CFB2200060025A94846CB
:101E7000FFF7C4FA002842D04846FFF781FB07006D
:101E8000864205D896235B0098450CD0C346BFE731
:101E90000300320059460598009404F04DF996234A
:101EA0005B009845F2D13900214804F045F94846D5
:101EB000FFF770F8041E2ED04846FFF761FB0500BF
:101EC0001C48290004F038F9BD421DD02A00390011
:101ED000194804F031F9194804F0A6F8184804F03C
:101EE000A3F8002420003BB0F0BCBB46B246A94694
:101EF000A046F0BD5946134804F01EF9F1E75946D3
:101F0000114804F019F9ECE7104804F08DF8104876
:101F100004F08AF8E6E70F4804F086F8E1E7C046E7
:101F200080D80010B0D8001000400540ECD8001058
:101F300000D8001030D900104CD9001090D90010F2
:101F4000D8D9001074D70010C8D8001008DA0010D3
:101F500020DA0010B4D6001010B50400084804F0D0
:101F600063F82000FFF73CF8041E04D0054804F095
:101F70005BF8200010BD044804F056F8F9E7C046AD
:101F800048DA001098DA001078DA0010094A830065
:101F90009A1810B514684022544080322240064CF2
:101FA000C000A44663441A60044B9C4660444160F0
:101FB00010BDC04604C0014004D0014000400140B3
:101FC0000123D0228340120693629361094A830061
:101FD0009A1811684022514080320A400649C000D8
:101FE0008C4663441A60054B9C460523604443605D
:101FF0007047C04604C0014004D001400040014089
:102000008023DB051868000F7047C0460FB400B589
:10201000084883B004F008F8049B002B07D005A9FA
:102020001800019103F040FE034803F0FDFF01207A
:1020300003F052FEBCDA0010CCDA001010B50148F3
:10204000FFF7E4FFD0DA001070B5EFF3108C72B632
:102050000D4D2B68002BFCD0BFF35F8F0724CB08FE
:10206000C618C05C01230C40A3401C00044003427E
:1020700007D118433070BFF35F8F2C608CF310884A
:1020800070BD1000FFF7C2FF2C0100D0F8B5474625
:10209000CE46884680B5EFF3108C72B6214D2C6881
:1020A000002CFCD0BFF35F8F9A422CD8D4080727AE
:1020B000055D061901241740BC402C421FD00721A2
:1020C0000127894609E0D408055D06194C46390008
:1020D0001440A1400C00294211D001329342F2D2A7
:1020E00001204042BFF35F8F00220E4B1A608CF339
:1020F000108800280FDBC0BCB946B046F8BD2543A8
:1021000010003570EEE7BFF35F8F00232B608CF378
:102110001088012040424346002BECD00898FFF77E
:1021200075FFC0462C0100D030B5EFF3108C72B6AD
:102130000A4C2368002BFCD0BFF35F8F07230122DA
:102140000B409A40CD08435D93434355BFF35F8FE7
:10215000002323608CF3108830BDC0462C0100D0D2
:10216000044A1078431CDBB2172B00D910231370DC
:102170007047C0466520002010B5064B064C82B063
:102180000100009318221F232000FFF77FFF02B0F9
:1021900010BDC046E0DA0010703500200021044B6D
:1021A000044ABFF35F8F02C39342FAD17047C0461F
:1021B000000100D0800100D0054B064A1360064A9A
:1021C000136053609360D3601361536193617047F0
:1021D0008080808000E400E004E400E01F231840D9
:1021E0001E3B8340002905D0C021044A49005350BA
:1021F00013607047802201498B50FAE700E100E04C
:1022000001228240034B1B6813405A1E9341D8B2EF
:102210007047C04600E100E001238340014A13609B
:102220007047C04600E200E0064B10309B6880001B
:10223000C358054A00209B1A2F229A424041C0B23F
:102240007047C04600ED00E06820002070B50D002A
:10225000EFF3108672B60F4A1368002BFCD0BFF361
:102260005F8F0D4B10309B6884001B590B4A9342C3
:1022700003D09D4201D001F04DF9074B9B681D51E1
:10228000BFF35F8FBFF35F8F0022024B1A6086F3AC
:10229000108870BD240100D000ED00E0C1010010E5
:1022A000F0B557464E46DE464546E0B585B00600D9
:1022B00000911700EFF3108B72B66A4A1368002B77
:1022C000FCD0BFF35F8F0025674B5D579A46002D0A
:1022D00000DAA9E06B00654C01935B199B009846FE
:1022E000A146C1444B4652469B7910361370604B51
:1022F000B6009B6899590B1B2F2B33D95D4B994224
:1023000000D0ACE0019B42469C465B4B6544AD006F
:1023100063535A4B0232A218043B9B1A1B05584ABE
:102320005B0D651913436B80564B0121AB80FF2376
:10233000AB71009BEF71AB604B460B4319004C4BEC
:102340009B689951BFF35F8FBFF35F8F0022454BAE
:102350001A608BF3108805B0F0BCBB46B246A946A4
:10236000A046F0BD01200A008243D3798C46BB42CF
:1023700031D84546130044491B1B5B415943090DA5
:102380003D4B63533D4B02356519043B5B1B1B05FD
:102390003B4D5B0D2B43AA464D466B800425AC4656
:1023A0005546E044131F44441B1B1B055B0D1D4396
:1023B0004B46997100999D8099604946DF71334B76
:1023C00001431360BBE75800C01880002018C17992
:1023D000B9422FD902000623D356002BF3DA029319
:1023E0002B4B61460393131D9A4604235B429C4684
:1023F000E14450464B461B1A1B055B0D9C46204B87
:10240000957198466346404603439380019B5A1951
:102410009200039BA418A380029B1C4AA371009BFB
:102420002260E771A3608AE701F074F80025534643
:102430005D574FE7908802934005131D9A46031598
:1024400061469C464046D444634604302018181A1E
:10245000E0230005400D1B0218430390C5E701F07F
:1024600059F84FE7240100D08B7B00206820002022
:1024700000ED00E0C101001000A1FFFF9820002046
:1024800000E0FFFF01BDFFFFAAAA0000014880474E
:1024900001BD000010B58308040003202040FF2484
:1024A000054AC0009446844081409B0063441A68FA
:1024B000A2430A431A6010BD00E400E070B5012495
:1024C0000443EFF30581EFF3108C72B6214A1368D1
:1024D000002BFCD0BFF35F8F1F4B05001F4AED1A86
:1024E0006D416A43120D1E4D8900AE6852B2765896
:1024F000A6421CD00621595691421CD01221595691
:10250000914222D01E215956914220D02A2159565B
:102510000324914210D0134B19781A708171BFF3C4
:102520005F8F00220B4B1A608CF3108870BDAB6874
:102530000D4C5C50EFE700246100091989005B181D
:10254000FF21997109499980E5E70124F4E7022404
:10255000F2E7C046240100D068200020AAAA0000AB
:1025600000ED00E08B7B0020C101001001BDFFFFEA
:1025700010B5084B084C82B00100009300220523DF
:102580002000FFF783FD002801DB1F23181A02B08B
:1025900010BDC046FCDA00108F7B0020024B9C4629
:1025A000614489000160704740000034F8B5124C66
:1025B000124DAC4212D20126002776422368002B2E
:1025C0000DD0FFF7CDFD01002000FFF7E7FF6660AB
:1025D0002772BFF35F8F0C34AC42EFD3F8BDFFF727
:1025E000BFFD01002000FFF7D9FF6660BFF35F8FDA
:1025F0000834AC42E2D3F1E76C2600207C260020B0
:1026000010B50400FFF7ACFD01002000FFF7C6FF86
:1026100001235B426360BFF35F8F10BD10B5040000
:102620000120FFF7A9FD034BC3189B002360BFF3F4
:102630005F8F10BD40000034034B9C46614489000D
:102640000160BFF35F8F704740000034F0B5DE4695
:1026500057464E464546E0B583B0EFF30582032367
:102660001340B54A990052580091904601229A4071
:102670009346B24B1A60B24B01935B46B148436339
:10268000434608229B5E9946002B3ADA43469B88D4
:102690001BB2002B00DB9DE043469B79002B00D052
:1026A000E1E0434608241C5F002C20DB43465A69C6
:1026B00063001B19DB00D3189D68DC686B1C00D11C
:1026C00003E1A048009984466144826A0B69AE1A0E
:1026D0009B1A9E4213D35A46036A1A420FD0994856
:1026E00000F0D0FB8C4202DCC7D18542C5D940BF87
:1026F00003B0F0BCBB46B246A946A046F0BD0D6192
:10270000EDE7424652695B0092464B44DB009A4437
:1027100053469E68DF6800F0B5FB8F42B6DC00D1FF
:10272000F8E0002F00DAD9E05246534654691B699D
:10273000019A934200D1CCE0414652460820085EFF
:102740005288000421001043984704000D00230024
:102750002B4300D1C2E0002D00DBDFE03000390068
:10276000001BA94153469860D96000229A5E002A56
:1027700000DA8BE743465D6953009C18E4002C198E
:10278000A768E4688C4200DD80E702D1874200D967
:102790007CE74646328108360DE08C4200D1C6E027
:1027A0001E000023F25E002A0ADB53009C18E4009E
:1027B0002C19A768E4689B18DB00EB188C42ECDD51
:1027C00053461A804B46338043469B881BB2002BEE
:1027D00000DA61E743461A69EFF3108172B61368B5
:1027E000002BFCD0BFF35F8F43469E8801234246F7
:1027F0005B42938036B21369BFF35F8F00221A6089
:1028000081F31088002E00DA46E743465D690833FD
:1028100042469C467700BF19FF00EF19BB6860462F
:1028200098460823D15E9246FC68002907DA0EE03C
:10283000A24246D018000023C15E002906DB4B00EF
:102840005B18DB00EB18DA68A242F1DD5246068025
:102850000023FE5E3980002EDCDA904643469B79E9
:10286000002B00D11DE700234246937143464646A4
:102870000821595E08364B1C00D138E74746894687
:10288000556902E006004B1C18D04B005B18DB00BA
:10289000E8180A008C46E95E43881BB2002BF1DA87
:1028A00001235B42DC178360C4604A4503D031805A
:1028B0003B8903803A81E1464B1CE6D1B8464C4641
:1028C000F2E69A684245B5D9C0E7631C00D0F8E645
:1028D00005E7200023699847002825D15346424642
:1028E0001B8813811269EFF3108372B611680029F7
:1028F000FCD0BFF35F8F4246514652880A80424661
:10290000494651801269BFF35F8F0021116083F344
:102910001088BBE6864200D803E7B7E6094800F016
:10292000B1FA001969411DE7656824680FE787421D
:1029300000D835E744E7C046EC3900203C7005403C
:102940004D26001000400540074810B50268EFF31F
:10295000108172B61368002BFCD0BFF35F8F06F0B6
:1029600081F90020002110BD883A002070B52E4C5E
:102970002569002D04D00A212C48FFF70FFE70BDF9
:102980002B4E0321300000F073FAE660FFF7E8FBFE
:10299000284B03229C46D02322701B061B68012172
:1029A0006370254B6044A3600F23800020610220E8
:1029B000638063694942A1801980023119864731D9
:1029C0001D83585218315A5275325C399952183257
:1029D000013199521832013199521832013199520C
:1029E000083518329D52023118329952183201318D
:1029F00099521832013199521832013199521832D4
:102A0000013199521832013199520C4B0C49DC605A
:102A100001303562FFF71AFC01210320FFF7DEFBCE
:102A2000084B1D60A7E7C046B0200020883A002070
:102A30000040054040000034FFFF1000EC3900204A
:102A40004D2600103860054000487047B020002037
:102A5000F8B51F0008AB1B7804001600002B08D146
:102A600000F018FA32003B00121A8B41002B00DAFA
:102A700053E02269EFF3108072B61368002BFCD08C
:102A8000BFF35F8F0223E15E63694A005218D200F0
:102A90009B18002937DB1A8862802269BFF35F8F99
:102AA0000025156080F31088069A9E60DF601A6129
:102AB000079A5A615A8801325204520C101C002A9B
:102AC0001FD082B25880080410432669EFF31087A4
:102AD00072B63268002AFCD0BFF35F8FA2881A80DA
:102AE000A1802369BFF35F8F00221A6087F31088EB
:102AF0000B4923788C4601329A40E36863441A609C
:102B0000F8BD0120DDE72369BFF35F8F00221A6063
:102B100080F3108801204042F2E70020F0E7C04631
:102B20003C20000070B501000469EFF3108C72B610
:102B300020680028FCD0BFF35F8F02200D5E4C6937
:102B400068004019C0002418002D37DB2088488019
:102B50000869BFF35F8F002606608CF31088E3607E
:102B600063880498013320615B0405985B0CA260C4
:102B700060611A1C002B1FD093B228046280184396
:102B80000A69EFF3108C72B61368002BFCD0BFF308
:102B90005F8F8B8823808D800B69BFF35F8F00224E
:102BA0001A608CF310880B7801329A40CB68084980
:102BB0008C4663441A6070BD0122DDE70B69BFF3E8
:102BC0005F8F00221A608CF3108801204042F2E7E8
:102BD0003C20000010B543890A1493421ADD5300CB
:102BE0009B184269DB00D3180469EFF3108C72B6AE
:102BF0002268002AFCD0BFF35F8F5A88090494B280
:102C0000090C8A4208D00369BFF35F8F00221A6063
:102C10008CF31088002010BD8022120214435C80C7
:102C2000012302698371BFF35F8F002111608CF370
:102C30001088044902788C469340C268012062449F
:102C40001360E8E73C20000040787047F0B5474645
:102C5000CE46040080B50D0096267642F717361949
:102C60006F4183B08F4215D812D000F013F93200B3
:102C70003B00121A8B41002B16DC002B40D02000A9
:102C8000290000F045F903B0C0BCB946B046F0BD1C
:102C90008642EAD90026002700F0FCF832003B000B
:102CA000121A8B41002BE8DD00F0F4F832003B00F3
:102CB000121A8B41002B0ADB00230193124B3200C6
:102CC000009312483B00FFF72DFF0028D7DBB846E2
:102CD000B1460F4F0F4E7B6A984504D8BA6A9145AA
:102CE000CDD99845CBD13268EFF3108172B6136815
:102CF000002BFCD0BFF35F8F300005F07FFFEAE7C9
:102D0000002ABCD0D0E7C04649290010B0200020DE
:102D100000400540883A002070B504000D0000F026
:102D2000B9F88023001969411B06994202D301209A
:102D300002494042FFF78AFF70BDC046FFFFFF7F98
:102D400070B5060000F0A6F8FA2204000D0000237A
:102D500030000021920001F051FB802300196941ED
:102D60001B06994202D3012002494042FFF76EFF41
:102D700070BDC046FFFFFF7FF0B5D6464F464646C2
:102D8000C0B504000D0082B0EFF305878946002F1F
:102D90000ED0344900204B6AAB4203D38A6A01301B
:102DA000A24226D302B0E0BCBA46B146A846F0BD66
:102DB0002D4B9846DB689A46434650461E7800F0F5
:102DC00061F80B00514602000436B600715820002D
:102DD0008E1A2900801A99418F4211DC0ED020BF33
:102DE000204A0020536A4B45DCD3926A0130A2424C
:102DF000D8D25B1B5A1E9341D8B2D3E78642EED994
:102E000000F048F822002B00121A8B41002B1ADB2D
:102E100000230193154B2200009340462B00FFF73F
:102E200081FE011E0FDD0F4B5A6A4A4517D39B6A7C
:102E3000A34212D34046FFF7CDFE0A4A0020536A50
:102E40004B45AFD3D1E7074A0020536A4B45A9D37E
:102E5000926A0120A242A5D2CBE74A45EAD120BF1F
:102E6000E8E7C04600400540B02000204929001096
:102E700010B5024A0248FFF7E7F810BD18DB001052
:102E8000743500200300416A0A00986A596A8A4230
:102E9000FAD17047034B596A0A00986A596A9142FD
:102EA000FAD170470040054070B504000D00174A84
:102EB000536A1900966A536A8B42FAD1300019009E
:102EC00024184D41AB4216D813D0104A2B00526A39
:102ED000954203D90D494A6A9A42FCD39A4207D1D6
:102EE0000A4A02E0516A994202D1916AA142F9D399
:102EF00070BDA642E9D9054B5B6A1C005A1CEFD095
:102F0000012301246442E5175B42E3E700400540EA
:102F1000064A536A9942FCD807D1044B02E05A6A28
:102F2000914202D19A6A8242F9D37047004005402B
:102F3000F8B5040006200D0000F0E2F9002844D0A6
:102F4000374B3849E3185A1E9341802212049446A5
:102F50005B429B0D344A9B0563441360334A136004
:102F600018000A689043FBD12D4B314AE3185942AF
:102F70004B4180215B0049000620995200F0C0F9C6
:102F80002900C00000F01EFC0130C3091ED14027FB
:102F900001226262A362266BF30722D4E36A254B07
:102FA0000620E51800232B60266300F0A9F93900FC
:102FB000800000F007FC7023E26A5A400E33134091
:102FC0002B601D4B23630323A364F8BD1B4A93426C
:102FD0001ED900231A4A1B4F6262A362266BF307B5
:102FE000DCD5194B144AE3181A60656AA36A0620F7
:102FF000AD01ED1800F084F9144900F0E3FBAD02D7
:103000000100280000F0DEFB0021FFF74DFFC5E7BF
:103010004006800E9F011A003F180300B9E7C04622
:103020000080FCBF08C0004000E0004000F000400D
:10303000943A00202C10000001030000FEFF000065
:10304000FFFF0000C0FF3F00303000004E0E0000C8
:103050000539013AF8B5D2004C0105001443002BA4
:1030600006D0013B5A4253419B00234302241C4398
:103070002E6BF30708D46E23EA6A624013400E4AAF
:10308000AA1813602E63F8BD0C4B0D4AEB181A609A
:103090006F6AAB6A0620BF01FF1800F031F90949D9
:1030A00000F090FBBF020100380000F08BFB002114
:1030B000FFF7FAFEDFE7C0462C10000030300000BA
:1030C000010300004E0E0000F8B5066B04000D0170
:1030D000F30708D4E36A5D4010231D400D4BE3184D
:1030E0001D602663F8BD0C4B0C4AC3181A60476A72
:1030F000836ABF010620FF1800F002F9084900F0BA
:1031000061FBBF020100380000F05CFB0021FFF70B
:10311000CBFEDFE72C100000303000000103000080
:103120004E0E0000F8B5DE464E4657464546E0B521
:103130008B4605000A991800160000F043FB0A9B15
:103140006C001F02324B64199C46A40064446368FF
:1031500081469F4200D967602B1FDBB29846012B46
:1031600030D9C02380229B01E31812011A60294B39
:10317000AD0059599A4600291BD17301E0262268F7
:1031800053401E40802342465B01E3181E60012A23
:1031900030D9802380229B01E31812011A60534624
:1031A0004A4667605A51F0BCBB46B246A946A046A3
:1031B000F8BD586900F006FB013043001B18033BC3
:1031C000FDD2DAE75B46012BCBD1C02303229B0162
:1031D000E3181A60023AA3681A42FCD07301E02691
:1031E0002268AD0053401E4080230A4A5B0192468C
:1031F000E3181E605A462168514003220A401A60B3
:1032000001225B469A40A3681A42FCD0C1E7C0463F
:103210000080004078350020F0B546464F46D6463F
:10322000C0B51F00344B44009C462418A4006444DD
:10323000636888461600FF2B02D880235B0063601A
:10324000031FDBB29A46012B30D9C02380229B0199
:10325000E31812011A60294B850059599946002933
:103260001BD17301E026226853401E408023524642
:103270005B01E3181E60012A30D9802380229B0164
:10328000E31812011A6080235B0063604B465F51B4
:10329000E0BCBA46B146A846F0BD586900F092FAC3
:1032A000013043001B18033BFDD2DAE74346012BF4
:1032B000CBD1C02303229B01E3181A60023AA36812
:1032C0001A42FCD07301E0262268850053401E405C
:1032D00080230A4A5B019146E3181E60424621683A
:1032E000514003220A401A60012342469340A268DB
:1032F0001342FCD0C1E7C046008000407835002072
:10330000014B8000C058704778350020F8B50400A4
:1033100021481E0017000D0000F054FA010038008B
:1033200000F050FA069B36041B031E432368002B53
:1033300020DB1A4B1A49E3185A1E9341802292014E
:1033400094465B421B0B174A1B0363441360164AE7
:1033500013601F000A689743FBD1144B2560E218E5
:103360002123A06013602368002BFCDA0823E660A9
:103370001360F8BD3F2322681340AB42D9D1A36844
:103380001B051B0D8342D4D1EE22E368D202134009
:10339000B342CED1EDE7C046001BB7000040FDBFF1
:1033A00008C0004000E0004000F000400430000091
:1033B00010B580241C4BE4051C6000281AD00123A2
:1033C0001A4C18431A4BDC611A4C44401C62596277
:1033D00098628021144BC905196017481749086085
:1033E000E021C9041960002A07D18022144B12067B
:1033F0001A6010BD0E4BD861EBE753019B1A9B007E
:103400009A18802312015B049A4209D213000D49D5
:103410000B60074B5A608022094BD2051A60E8E71F
:10342000094B1A00F3E7C04600B00540D3C007B00F
:10343000008005402D3FF84FFCFF010008200140AF
:1034400000A00540DC390020FFFFFF008023024A76
:103450009B000B43D362704700800540142310B5D6
:103460000100188804331B88984710BD162310B537
:103470000100188802331B88984710BDF8B54746ED
:10348000CE4680B50F1E19D014239946043304008C
:103490000025012698464B461888434621681B881C
:1034A000984701C4431E9841013540420640AF424F
:1034B000F1D13000C0BCB946B046F8BD0126F8E7EE
:1034C000142370B50400188804331B880D000549C7
:1034D000984703000020002C01DB0130A0402900A8
:1034E0009847C04655420000AA23064A1B011360B4
:1034F0008D235B00D3600449044B19605368002B93
:10350000FCDA70470040024000B0FA000060024060
:103510007047C04610B50148FEF778FD3CDB00104F
:1035200070B5074D074EB54209D20024013E761B07
:10353000B60808CD984723000134B342F9D170BDD5
:10354000B8CE0010F4CE0010054B064A06491A60AA
:10355000064A074B1A6010000B689843FBD170476E
:1035600000E00040BFCDFBFE08C00040FE7F3C00F5
:1035700000F00040044BDB6C002B03D18022034B96
:10358000D2021A607047C046000011504C20115002
:10359000044A054B1A60054A1368DB018033FBD1EE
:1035A0007047C046FFFFFF0100F0004008C0004028
:1035B0004022034B9A675A671A67DA667047C0461B
:1035C00000F0014010B5FEF7E9FD10BDF8B5274940
:1035D000274C284D641AA6103200302E00D9302214
:1035E0002800920000F0A8FFBC2C3BD830202F23ED
:1035F0002C196407204A801BE40F9B1B052B16D94E
:103600003700002C02D0B300771CEA50001B33199E
:103610009B004108EB18C900C9181A605A600833AA
:103620009942FAD1012303421CD09843C619B30032
:10363000EA50731C2F2E15D09B00EA50B31C2E2E7F
:1036400010D09B00EA50F31C2D2E0BD09B00EA50AB
:10365000331D2C2E06D09B00EA50731D2B2E01D05B
:103660009B00EA50054B9D60F8BDC046000100106C
:10367000C001001000000020C101001000ED00E0BA
:10368000002310B5294C82B0A367FFF72DFF01225C
:10369000274B1A60636C012BFCD10322254B1A6067
:1036A000224A936B012BFCD1013300930121224A62
:1036B00022480433FFF72AFE052301210093204A04
:1036C0002048FFF723FE0022022104201E4BFFF7B3
:1036D000A3FD0022012105201C4BFFF79DFD0022C8
:1036E000002107201A4BFFF797FD00220021082038
:1036F000174BFFF791FD8023DB0000930022002190
:103700000920134BFFF70EFD0022104B002106206D
:10371000FFF782FD0420FFF7F3FD0E4900F052F899
:1037200001000020FFF792FE02B010BD00800040B3
:103730003CB0004030B00040002F6859008002408B
:10374000008C864700C00240001BB7004059730739
:10375000006CDC0240420F0001480421014B184775
:10376000D02000207D340010014B9B6818470000DA
:10377000D0200020124A936F9B0815D29066D16624
:10378000002905D0FFE7FFE7FFE7516F106F704793
:1037900004B580210906C2175140002800D0C84353
:1037A00009F002FB002104BDF0B5146E556E576F91
:1037B000166FFFF7E3FF1466556657671667F0BD8F
:1037C000000000D0114A936F9B0813D21066516617
:1037D000002905D0FFE7FFE7FFE7516F106F704743
:1037E00004B5002801D00020C04309F0DDFA002113
:1037F00004BDC046F0B5146E556E576F166FFFF7D7
:10380000E5FF1466556657671667F0BD000000D0E7
:1038100094464A4A926F9208624601D228E0C04616
:10382000F0B5464E346E756E776F366F00F020F847
:103830009446424A14665566576716676246F0BD5D
:1038400094463E4A926F9208624601D254E0C046C6
:10385000F0B53A4E346E756E776F366F00F04CF8F7
:103860009446364A14665566576716676246F0BD39
:10387000002B24DB11D000293EDA00B5C9434042B9
:1038800000D1013100F038F8C943404200D1013184
:10389000DB43524200D1013300BD002AEBD10028A6
:1038A00001D1002905D00020C90FC90701D1C043AB
:1038B000410800B509F048FA0022002300BD00B518
:1038C00000290ADBDB43524200D1013300F014F837
:1038D000C943404200D1013100BDC943404200D13B
:1038E0000131DB43524200D1013300F005F8DB43E4
:1038F000524200D1013300BD002923D1002B18D141
:10390000002A0CD0BC460D4F38667A660021002391
:10391000FFE7FFE7FFE77A6F386F674670470028D9
:1039200001D00748010000B509F00EFA002200237B
:1039300000BD02000B00002000217047000000D0F5
:10394000FFFFFFFF002B00D0BFE0130C28D1002A9F
:10395000E7D080B4114F39667A66FFE7FFE730B4ED
:10396000040C7B6F396F1B0423433B667A66FFE7C9
:10397000FFE7FFE7C04684B27B6F3D6F1B04234324
:103980003B667A66FFE7FFE7C04600232C042D0C58
:103990007A6F386F00196941B0BC7047000000D0E1
:1039A000F0B594460025140E01D112020835140F0B
:1039B00001D112010435940F01D192000235D40FC8
:1039C00001D152000135D40B0134254F7C66254CC2
:1039D0003C660E0C93B2FFE7FFE7FFE73C6F6643E0
:1039E000360C7703BE467343DF0B5B04C01AB94144
:1039F000130C7343DB18C91ACE086643360CB64461
:103A000093B273431F0F1B01C01AB941130C7343C8
:103A10001F0B1B05C01AB941860D8F023E4366433A
:103A2000360C092D24DB520A7243801A7703460AAA
:103A30006643360C16235B1BDE40DF40BF1964462D
:103A40006643821B7046043506330100D940A84006
:103A5000C01900D30131A24206D20023F0BD0000FC
:103A6000000000D0FFFFFFFF121B0130F3D3F1E78E
:103A700009277F1BFE406446A2B27243801A00D21F
:103A80000139220C7243130C1204821A99410B0063
:103A90007046043513370100F940A840801900D35F
:103AA0000131002B02D1A2420AD2F0BD013000D375
:103AB0000131121BFAD2013BF8D1A24200D2F0BD73
:103AC000013000D30131121BF7E7F0B51C0C00D018
:103AD00080E00CB400251C0A04D11B02160E3343EF
:103AE000120208351C0B04D11B01160F33431201BF
:103AF00004359C0B04D19B00960F33439200023592
:103B0000DC0B02D192185B4101351C00971864410F
:103B10000134464F7C66464C3C660E0CFFE7FFE7DF
:103B2000FFE7C0463C6F6643360C7703BE4697B24C
:103B30007743C01B00D20139C01B00D201399FB2AC
:103B40007743C91BC91B170C77437E04FF0B801BEF
:103B5000B941CE086643360C0C2D33DBB644120B4C
:103B60001F053A431B0B97B27743C01B00D20139A4
:103B70009FB27743C91B170C77433E043F0C801B51
:103B8000B941860D8F023E43664329277F1BFE40C5
:103B90000C3D7746AF40BF1930BCA2B2ABB2724306
:103BA0007343801A9941220C7243130C1204801A39
:103BB000994102000B000137001BA941F9D2781E80
:103BC0000021F0BD0C277F1BFE4077467F0BAF40E6
:103BD000FF19E0E700245D1C07D0144F7D663966AD
:103BE000FFE7FFE7FFE7FFE73C6F95B29EB2654353
:103BF0006643401BB141150C1E0C654366433604F9
:103C00002F0C3E432D04401BB141994204D20200C7
:103C10000B0020000021F0BD01D19042F7D3801AA3
:103C2000994101349942F2D3F6E70000000000D038
:103C3000FFFFFFFF48404140484018B41B4B5B6802
:103C4000FC46019308BD04DFCF3E001018B4174BAB
:103C50001B68FC46019308BD00DFD93E0010944666
:103C6000134A926F920809D2624618B40F4BDB6870
:103C7000FC46019308BD0CDF914100100C4AF0B5E1
:103C8000146E556E576F166F6246FFF7EEFF084AC7
:103C90001466556657671667F0BD18B4034B9B68EA
:103CA000FC46019308BD08DF3540001008280020BD
:103CB000000000D0FFB550404240504059404B40BA
:103CC000594000E0FFB5154F4C00640D03D0BC42D5
:103CD00004D10C0314D80020090D09055C00640D03
:103CE00003D0BC4204D11C030AD800221B0D1B05C3
:103CF00001264B4009D44B4003D58B4200D1824270
:103D0000FFBD9942FCD19042FFBD0B43DB1803433A
:103D10001343F5D0C9434918FFBD0000FF07000059
:103D200000B5FFF7CFFF804100BDC04600B5FFF7EB
:103D3000C1FF01D9002000BD012000BD00B5FFF783
:103D4000B9FF804100BD012040054A00121804D887
:103D50005A00121801D80020704701207047000057
:103D60000021002805D17047C1174840401AFAD0F9
:103D7000C90713B5064B1B6898470CBC441CA240EE
:103D80001005120B0349091B09051943114310BD06
:103D9000843A00201F04000010B54C00620D8023FF
:103DA000D218DB00D21A5B057E2A10DD9E3A13DAA8
:103DB000CC170903490819435242D1406400013429
:103DC0001532202A05DAD0400843604310BD002098
:103DD00010BD0846604310BDC80FC018013810BDA3
:103DE00018B4044B5B6AFC46019308BD24DF4143D1
:103DF0000010000008280020132370B51D78012D45
:103E000019D014DD1F48FFF731FB06001E48FFF7ED
:103E10002DFB1E4C80223100200000F08DFB022D76
:103E20002DD01B48FFF71AFB1A4B186070BD1A4BB8
:103E3000164CA364F5E7184B144C23606360A36031
:103E4000E36023616361A361E36123626362A36250
:103E5000E36223636363A363E36323646364A36430
:103E6000E36423656365A365E36523666366A36610
:103E7000E36623676367A367E367A364D1E7064B41
:103E8000A364CEE7534400005346000008280020F6
:103E90004C330000843A00209D3E001007B5604678
:103EA00001880A0A0230DF2AFAD1C9B2820804D393
:103EB000028840880004104300E00068014A505026
:103EC000039007BD082800200FB403BC0CBCF0B55C
:103ED0000124E407634000E0F0B50C0DCF0F661E2F
:103EE0003605891B640503D3C943404200D3013121
:103EF000640D03D0661CF60A07D0E41B00207F0087
:103F0000791C89078912803C24031D0DDF0F6E1E6A
:103F100036059B1B6D0503D3DB43524200D30133AF
:103F20006D0D03D06E1CF60A07D0ED1B00227F003A
:103F30007B1C9B079B12803D2D032F1B661B58D4B7
:103F4000A446202E46DA20371400BC401D00BD4098
:103F5000F24033412A4380185941CB0F05D0C94361
:103F6000C043002264425041514162464D0D28D168
:103F70000D0D07D100281FD0241940414941013AB5
:103F80000D0DF9D0640006D3013000D30131002CAF
:103F900001D140084000013A0BD4941CE40A04D13A
:103FA00012051144DB071944F0BDD907204B194312
:103FB00000E0D9070020F0BD0029DDD1002CDBD1C5
:103FC000F0BD0132C6074008CD0728434908002E3E
:103FD000E1D0D9E73C2E29DA203E40371400BC401E
:103FE00000D00124F24014431A00BB401C43D317F5
:103FF000ACE7AC46202F08DA20360400B4400D00B0
:10400000B540F84039412843A5E73C2F0CDA203F62
:1040100040360400B44000D00124F84004430800B6
:10402000B1400C43C117EAE710001900002494E7DF
:104030000000F07FF0B50C0D661E3605891BE60A00
:104040006405640D02D0651CED0A04D00020012136
:104050000905803C2403A4461C0D671E3F05DB1B9D
:10406000E70A6405640D02D0651CED0A04D0002245
:1040700001231B05803C24037740644497B484B239
:1040800096B27443070C7E43150C6F4380B26843AD
:10409000361802D3012000043F183004350C0019F3
:1040A0007D41844688B29AB250430C0C62431F0C87
:1040B0007C438EB27E43921902D301263604A419A2
:1040C0001604170C3618674101BC81B29AB25143ED
:1040D000040C62431B0C5C4380B25843121802D399
:1040E0000120000424181004130C401863412D18FB
:1040F0005E410020474106BC88B293B258430C0C85
:104100006343120C544389B251435B1802D301211B
:104110000904641819041A0C091862416D185641F3
:104120000020474118BCF902720D1143F0026A0DDC
:104130001043ED020A0D03D16D1940414941013B85
:10414000124E9B1B7600B3420ED26D0007D3013096
:10415000002671416646354301D1400840001B05E9
:10416000C918E4072144F0BD0BDA013306D1013050
:1041700004D101314F0D01D04908F2E7E1070020D9
:10418000F0BD013631050020EBE70000FF03000021
:10419000F0B51C0D671E3F05DB1BE70A6405640DC7
:1041A00002D0661CF60A04D0002201231B05803CC5
:1041B0002403D0252D060026F6432E661E096E66C2
:1041C000CE0FF619B44649004F0D02D07E1CF60AF8
:1041D00003D000200021403F3F033E1BB600B44403
:1041E000013F7F05C91B49082E6F013676089C02E6
:1041F000950D25437543ED137543AD1301356D10D2
:10420000F603761B0CB4CC02450D2C43A2B2B3B21C
:104210005A43270C7B43350C6F43A4B26C431B19E4
:1042200002D3012424043F191C041D0CA4187D4151
:1042300024196D41009A91B2ACB26143170C7C43D2
:104240002B0C5F4392B25A43A41802D301221204EA
:10425000BF182204230C52187B41019C6C431B198C
:10426000520ED9010A434401A01A81B2B2B251439D
:1042700003145A43360C734387B27743D617D219C7
:1042800000277E4136049B191704160C7F185E41E7
:104290007316ED18F301002680337541A90F06D17E
:1042A0006400690AE8055B0A184309D22FE004227A
:1042B000944480337541A90AA8059B0A184326D364
:1042C000404149412404009A019B0D005543641B61
:1042D0004343E41A95B286B27543170C7E43030C30
:1042E0005F4392B25A43B61802D301221204BF1898
:1042F0003204330C52197B4152429C41002C02D4AF
:104300000022013051414008CA071043490802B059
:104310006246D7079210084BD218084B9A4203D234
:1043200012058918C919F0BD0020002A01DC3900E6
:10433000F0BD01331905F5E7FD030000FE0700009D
:10434000002200B5203200F004F8080000BD000093
:1043500000220B150AD410B5944600F031F814145D
:10436000013400DA0021CB17144C20470020002133
:1043700070476244343A0CD40C2A07DA04009140A6
:10438000904052422032D440214310BDD843D943FB
:1043900010BD203207D40C469440524220321141C5
:1043A000D040204310BD0800C917203203D4524228
:1043B0002032104110BD1800190010BD73430010C9
:1043C0000A0DCC0F531E1B05C91A520503D3C9434E
:1043D000404200D30131520D03D0531CDB0A07D0F9
:1043E000121B00206400611C89078912803A1203A5
:1043F000014BD21A70470000FF03000051434343B2
:10440000C9188C46110C83B24B4310B4040C6143A1
:1044100092B280B2504362431C041B0C001910BCC2
:1044200059411304120CC0185141614470470000F7
:10443000132310B512481C78FFF718F80100012C5F
:104440000AD003DD80220F4800F076F80E48FFF70F
:1044500005F80E4B186010BD0A4C5422200000F0E5
:104460006BF80B4B6365A365E36523666366A36620
:10447000E36623676367A367E3672362E361E5E7B6
:1044800053460000082900204C330000843A0020E5
:104490009544001007B5604601880A0A0230DF2AF9
:1044A000FAD1C9B2820804D30288408800041043BC
:1044B00000E00068014A5050039007BD0829002021
:1044C00070B504000A4E300008F0DEFC200008F051
:1044D00063F90500300008F02FFC002D05D0054BD6
:1044E0002C199C4201D8280070BD0348FDF78EFDB1
:1044F0006C2600200000042048DB001070B504008A
:10450000054D280008F0C0FC200008F04FF92800F5
:1045100008F012FC70BDC0466C2600200148042142
:10452000014B1847E02000207D340010014B1B6830
:1045300018470000E0200020014B5B68184700008E
:10454000E020002010B5FFF7D9FF10BD9A4200D23D
:10455000885470477047C046F8B55746DE464E4609
:104560004546E0B599460A9B07009A460D9B88464A
:1045700093460B9C9B073BD10C9B9C423DD21E1B40
:104580000B9415000C005E442A004B4601352100B7
:104590002020B847B542F7D1A0460B9C002C20D074
:1045A000454636195346321B013C185D29004B46DF
:1045B000B847002CF6D12B00350098460D9B9B0781
:1045C0000FD55B46EC1A0C9BA3420AD94646984687
:1045D0002A004B46310020200134B84701354445BC
:1045E000F6D32800F0BCBB46B246A946A046F8BDAB
:1045F00016001500002CD3D1E0E71600002CCFD117
:104600001500EEE7F0B54F464646D646C0B584B035
:1046100098460EAB1B7894469946129B0D9C109FB2
:10462000119E9A0725D4002E65D1BC4221D20122C9
:104630001A409246202C00D1E9E00C9A551E3022F7
:1046400002E0202C00D17BE001342A55A742F8D8A3
:104650005246002A0DD0B4420BD20C9A551E30227D
:10466000202C02D171E0202C2DD001342A55B442E7
:10467000F9D1DA063CD55A052ED4002C28D10F9A50
:10468000102A00D1B6E0022A00D1BCE030220C9CF6
:10469000227001244A46002A65D15A0700D499E0C5
:1046A0002B220C9D2A55013403930C9B62460093E8
:1046B000029643460194FFF74FFF04B0E0BCBA46B0
:1046C000B146A846F0BD2024DA06EDD55A0503D43C
:1046D000A74266D0B44264D00F9A102A71D0022A41
:1046E00057D0202CE0D02200013430250C9FBD543F
:1046F000202CD9D0CEE7012215001D40AA461A422F
:1047000036D04A46002A4AD10C321A4247D1BC421E
:10471000A1D2202C91D1202E17D82024DA06C3D57F
:104720005A051BD4202F01D0202ED5D11F220F9D3A
:10473000102D6FD0022DD8D162250C9FBD54D0E72B
:104740005246002A79D0202EBDD92024DA06ABD5D6
:104750005A0503D4202FE9D0202EE7D00F9A102A33
:10476000A2D12024A0E72D220C9D2A5501349BE7DD
:10477000BC4200D37DE7202C00D05EE7DA06F0D5FE
:104780005A05EED4202F62D0202EEAD134001F2209
:10479000CDE7202C00D187E722000134CCE7013E91
:1047A000B5E7621E012CC2D10F9A102A00D06AE729
:1047B0009A063BD558220C9C2270283A627002243B
:1047C00068E79A060ED4202CCBD078220C9D2A556F
:1047D000013486E71A0700D466E720220C9D2A558B
:1047E000013461E7202CBCD058250C9A12191570A1
:1047F000013476E79A0608D558220C9C22703022A4
:104800006270022446E76032F7E77822F5E7002A73
:1048100083D1B3E7A21E013C9D0603D478250C9FEB
:10482000BD5460E758250C9FBD545CE778220C9C72
:104830002270483A627002242CE7DA0600D433E78B
:104840005A058BD4202F00D044E71F226FE73C008D
:104850001F226CE710B5002800D110BD01F098FBB5
:10486000FBE7C0460B0010B5002802D049681B6862
:10487000984710BDF0B557464E464546DE46E0B572
:1048800099B08246894690460893229A239B10004D
:104890001900FFF758FA002800D0CDE0229823999C
:1048A0000122D94B5242FFF749FA002800D0C3E059
:1048B000229823990122D54B5242FFF731FA002862
:1048C00000D0B9E02298239900220023FFF728FAAC
:1048D000002800D0F1E1229E239F8023269ADB004E
:1048E0001A400D92269A1A4201D10623249380235E
:1048F000269A1B011A403B0093460996334300D089
:10490000B3E0002A00D0C2E1002300240A930B94F4
:10491000002304250993259B0024AB4200D95C1B8E
:104920000223269A1A400C92269A134203D06B4215
:104930006B415B421C40099B002B07D00A9A0B9BE2
:1049400030003900FFF78BF906000F0022982399F9
:1049500000220023FFF7E4F9002803D08021090694
:104960007B181F00269AAA4B009601971340089EB9
:104970000493249B039402934246330049465046D5
:1049800000F0AAF90400002D67D02020269A49469D
:10499000024013005A4253415B42621C18400A9283
:1049A000330022004530D047099A6F1ED317D41820
:1049B0005C40D30F9B46002501E0202D13D008AAB0
:1049C00094461F23200063440A2101355E19FEF737
:1049D000F9FE3031317020000A21FEF7F3FE260087
:1049E0000400092EE9D805230693002304930A3313
:1049F00003935B46089E029310AB0A9A00934946C4
:104A00003300504605970195FFF7FCFD0C9A040012
:104A1000002A22D04246851A259AAA421DD9B046BC
:104A20005746160022004346494620200135B84724
:104A30000134AE42F6D810E0269B42460493259BF3
:104A400049460393249B50460293229B239C009348
:104A50000194089B00F040F90400200019B0F0BC5C
:104A6000BB46B246A946A046F0BD6A4B78009C46BC
:104A7000400D6044FFF778F9674A684BFFF70DF97E
:104A8000674A684BFFF7E2F8674A3B031B0B1A4380
:104A900004000D0009981100644B0022FFF7CDF8C7
:104AA000634A644BFFF7F9F802000B00200029006D
:104AB000FFF7CCF8FFF770F90990FFF755F95E4A58
:104AC0005E4B04000D00FFF7E8F800225C4BFFF797
:104AD000BDF8FFF761F95B4A5B4B29000C902000A1
:104AE000FFF7DBF804000C980D00FFF73DF9574A7B
:104AF000574BFFF7D2F802000B0020002900FFF708
:104B00009CF804000D0002000B000A940B95FFF7BF
:104B1000C4F804000D000A980B9902000B00FFF77F
:104B200095F800220E900F914A4B20002900FFF7C4
:104B300096F80022484BFFF789F802000B0020008E
:104B40002900FFF78CF80022444BFFF77FF80200A2
:104B50000B0020002900FFF782F80A9A0B9B0D003A
:104B600080210400C9050020FFF767F802000B0050
:104B700020002900FFF76AF802000B000E980F9939
:104B8000FFF76DF80022284BFFF760F8344B0C9CC0
:104B90009C46644423050022FFF77FF804000D00C3
:104BA00002000B00300039000A940B95FFF7B8F8AB
:104BB00000285DD123002A00C625099963318D4262
:104BC000AD4159466D420435002900D1A3E6134397
:104BD00063D030003900234A234BFFF7A7F80028A1
:104BE00007D0002230003900204BFFF799F8002849
:104BF00053D1249B002B00D18DE60D9B5A1E93416F
:104C0000249AD31A249386E6FFFFEF7FFFFFEFFF7E
:104C1000FFF7FFFF01FCFFFFFB799F501344D33FD9
:104C2000B3C8608B288AC63F0000F03F0000F83F01
:104C300061436F63A787D23F71A379094F930A40FD
:104C40000000E03F1655B5BBB16B0240EF39FAFEEC
:104C5000422EE63F00002C40000024400000184097
:104C6000FF0300002D431CEBE2361A3F80842E41E7
:104C7000099B0022013B09932000164B2900FEF7F7
:104C8000EEFF0A00010003000A910B9294E7002353
:104C900000240A930B9400230993249A099B9A42B7
:104CA00014DDD31A013B24938023269ADB001A4398
:104CB00000230025269209932DE6802212069446B1
:104CC000229B1E00239B63441F0006E600232493BF
:104CD000EAE7C04600002440F0B54546DE464E46B1
:104CE0005746E0B595B08B46904699461E9A1F9B55
:104CF0000A9019001000209DFFF725F8002800D029
:104D0000B0E11E981F990122C74B5242FFF708F8E5
:104D1000002800D037E11E981F990122C34B524250
:104D2000FFF70CF8002800D0A7E01E981F9900227A
:104D3000BF4BFFF703F8002800D088E01E981F99AA
:104D40000022BC4BFEF7ECFF002800D07FE01E984D
:104D50001F9900220023FEF7E3FF002800D0FAE0AD
:104D600000230B938023229C229ADB001C401A42D2
:104D700000D102E1092D00D87CE106A98C462C0067
:104D8000172200233021093C62440133D154EF1A29
:104D9000202B00D132E1A342F7D10022A44B06928E
:104DA00007931E981F99FEF7F7FF0500FEF7DCFF3B
:104DB00002000B001E981F99FEF73FFF069A079B03
:104DC000FEF76BFF08900991FFF70AF80600FEF75F
:104DD000C7FF02000B0008980999FEF72EFF00227A
:104DE000954B08900991FEF7A9FF002800D1D2E069
:104DF00001363000FEF7B4FF069A079BFEF796FFD8
:104E0000002801D000260135AA46002F00D098E0E6
:104E10002800FEF7A9FF02000B001E981F99FEF75D
:104E20000CFF854B002206000F00FEF779FF0CAB4C
:104E30009A46002845D10022300039007E4BFEF70B
:104E40007DFF00283DD1EB073BD5013539E0229BA2
:104E500042460493219B594603930A981E9B1F9C2C
:104E60000295009301944B46FFF704FD15B0F0BC8A
:104E7000BB46B246A946A046F0BD229B5B0767D45D
:104E800003226E4B22990192039121990291009382
:104E900042464B4659460A98FFF75EFBE6E706AAEC
:104EA00094461723280063440A2101341E19FEF793
:104EB00061FC3031280031700A21FEF75BFC051ED1
:104EC00076D0202CEBD10323229A1340012B1DD145
:104ED000219B002B1AD00B9B002B00D0BBE0229A09
:104EE0000C33134200D0B6E0219BA34200D887E0E8
:104EF00006AB9C4617223023624404E0219901341A
:104F000013558C4259D0202CF8D12024229B019497
:104F10000393219B02935346B9E706AA94461723AD
:104F20000A216344300001341D19FEF74BFC303177
:104F3000297030000A21013FFEF744FC092E46D9B2
:104F40000600202CE9D155460CAB20249A46B8E740
:104F500004223B4B96E71E9A1F9B00200021FEF780
:104F60006CFE01230B938023229C229ADB001E906F
:104F70001F911C401A4200D0FCE60022314B06274C
:104F8000069207930DE7229B0393219B0293042330
:104F900001932D4B7BE7002208980999264BFEF7D9
:104FA000BFFE002800D02FE7002E4FD101362BE79F
:104FB0000323229A1340012B66D0202CA6D00B9BF2
:104FC000002B1FD02D235246135501349EE7554622
:104FD000202CB9D030233A19002F08D0172006A969
:104FE000013409180B55202CAED09442F6D10CABED
:104FF0009A462E2352461355013462E72024CCE60C
:10500000202C83D0229B5B0708D4229B1B0700D453
:105010007CE7202352461355013477E72B23524671
:105020001355013472E7C046FFFFEFFFFFFFEF7F2C
:1050300065CDCD4165CDCDC10000E03FA4DB0010C2
:105040009CDB001080842E41ACDB0010F30700D401
:10505000DAE60136D8E6219B013B2193A34200D931
:1050600046E7AAE7229B0393219B02930323019324
:10507000074B0CE7074BEA009B185C681B682F0086
:105080000693079400248CE6219B002B95D022E701
:10509000A8DB0010D0DE0010F0B55746DE464E46C5
:1050A0004546E0B5A5B01F002E9B91460D93CA4A18
:1050B000CA4B82468B461A60002900D129E20023A0
:1050C00038789846002800D12BE2C54B44460C9313
:1050D000C44B55464E460E930AE0631C9846220088
:1050E00033005946A84744463878002800D187E065
:1050F00001372528F1D108239A46043B9946023B03
:105100009846013B00229C460B943878791C03009A
:10511000203BDBB2102B03D80C9C9B00E3589F462E
:105120000300303B0B9C0B92092B3AD90023984685
:105130002A2800D1DDE000239A462E284BD0030018
:10514000683BDBB2122B1ED80E9A9B00D3589F46A9
:1051500063460F001A43D8E743460F001A43D4E7CB
:105160004B460F001A43D0E710230F001A43CCE739
:1051700053460F001A43C8E780235B000B9A7878E8
:105180001A430B9201310F0067284FD82428A4D965
:105190000300253BDBB2422B9FD893499B00CB58A1
:1051A0009F46002398460B9B47469C4600E00131F2
:1051B000BB00DB195B001F180878303F0300303B51
:1051C000092BF4D963460B930023B8469A460F0087
:1051D00001312E28B3D180200B9AC00002430B92DC
:1051E00030225242944678780B0084446246092A61
:1051F00000D8AAE12A2800D1B9E10F0001319EE7C9
:10520000A046AA46B146C84503D301235B424B449E
:1052100098464B46424659460020D047200025B0CC
:10522000F0BCBB46B246A946A046F0BD01006939B4
:10523000C9B20F2900D950E701238B409C466B4B24
:10524000994663464A4613400F9362464B461A42BC
:1052500000D068E10A2956D0072900D03DE70D9B10
:1052600002CB9846002900D092E10B9B10211A0036
:105270008A43100011310843814680201A00C00083
:105280000240110003421CD114AB9C461F220F2385
:1052900062440D959C4615000F9B0B9402E0202B59
:1052A0000CD0110064460C4020003730092C00D887
:1052B00007380133E8540A090F29F0D80B9C0D9DDB
:1052C0000F934B46082206935346059208320392E9
:1052D000002204930F9B029201931CAB22000093C7
:1052E000594633002800FFF78DF9434604000D931B
:1052F000FAE60D9B04CB9046002A79DB78780D9373
:105300000F00013117E70D9B02CB14930B789C46DD
:1053100018005346002B00D134E1002815D0534625
:10532000013B013399460D940B9C89444A460B007E
:10533000A14601E0934203D05C780133002CF9D1FF
:105340004A465B1A0D9C0B920F938023DB00994613
:105350000B9A13400D934B461A4204D00F9B5345B2
:1053600001D953460F93022399460B9A13400B938E
:105370004B46134200D1F5E16346002B00D1D6E144
:105380000D9B002B00D182E10B1BD14631009A46C8
:105390003B00A1442E005F464D4622009B468946B5
:1053A00009E04B463900541CB0475346185D0028AD
:1053B00000D192E122009542F3D14B465A46A946CC
:1053C000BB46350017001E004C460B9B002B00D03F
:1053D000ADE1149B0D9387E699500010D839002059
:1053E00034DD001078DD0010C4DD001041900000B5
:1053F0000B9A283802430B924246524278789046E4
:105400000F000D93013196E678786C2800D15DE1AC
:1054100080230B9A5B001A430B920131B3E6802381
:105420009B00ABE67878682800D148E180230B9A8E
:1054300001311A430B92A6E6672800D1B2E0472853
:1054400000D11AE1452800D11CE10B9A07210492F2
:1054500042460D9B0392073352468B43190002923A
:105460000CC92800009201930D9122003300594687
:10547000FFF700FA040037E6462800D18DE00B9ACA
:105480000721049242460D9B0392073352468B43F9
:10549000190002920CC92800009201930D9122007C
:1054A00033005946FFF718FC04001DE6631C9846BC
:1054B0002200330059462520A847444614E60D9B98
:1054C00004330F93631C99460B9B9A0700D40AE19F
:1054D0000D9B2200187859463300A84743464444A0
:1054E000012B00D86FE1B0462E0025004C46B9468E
:1054F0005F4622004346013439002020B047AC42C9
:10550000F7D12C00BB4635004F4646460F9B0D9306
:10551000EAE5D64B38789A4600239846002800D012
:10552000D3E500246FE66F2842D000D8FDE11023B8
:10553000782800D19BE00B9A9A430B920A239C4651
:10554000002314930A330F9338E057460B9AB9009F
:10555000C919490001330F181878303F010030395C
:105560000929F4D9BA460B921F00591CE7E50D9B97
:10557000B87804CB0237D143C9170A4092460D933D
:10558000791CDCE5002800D1DFE602235B42C8E697
:1055900021200B9A0243914676E620230B9A1A4368
:1055A0000B926CE780230B9A1B011A430B924CE77A
:1055B00008239C460023149308330F930B988023F1
:1055C0000200DB001A4011000200184200D080E007
:1055D0000C239A431000802302009B001A400B9278
:1055E000184200D0F1E0802302005B001A4091468F
:1055F0000D9A04321492184200D0C3E2430600D53B
:10560000D7E0030600D421E30D9B1B880993002BF0
:1056100000D02DE110339843002900D128E1002368
:10562000994643460593534604930F9B0690039374
:10563000002302934B4601931CAB22000093594672
:1056400033002800FEF7DEFF0400C2E6582809D028
:10565000622800D0E3E202239C4600231493023325
:105660000F93ABE720230B9A1A430B92103B9C46F7
:105670000023149310330F93A0E780230B9A1B0190
:105680001A430B9220230B9A1A430B92DDE60B1B55
:105690009A460F9B99463B0037005E469B46220088
:1056A0003B003100A84753460134185D0028F6D16D
:1056B0004B460F935B46B3463E001F0085E6C02372
:1056C0000B9AB8781A430B92F91C5CE5C0239B0037
:1056D000F6E70D239A4310007DE75B463500BB4695
:1056E0004E461F0071E64346012B66D9631E4344B4
:1056F00032002E001D003B00A2465F4691469B46AD
:1057000022004B46013439002020B047AC42F7D18B
:105710005B463500BB464E46A14654461F000D9BD6
:105720004A461878594633004444A847EEE60F9B92
:10573000A146984500D84CE64444E41AB0462E00F1
:1057400025004C46B9465F462200434601343900E5
:105750002020B047AC42F7D12C00BB4635004F4665
:10576000464636E60F98804500D873E24346E21875
:10577000131A32002E001D003B0091465F469B46E7
:105780000F9122004B46013439002020B047AC4233
:10579000F7D15B46BB461F0043460F9901330F9379
:1057A0000B7835009C464E466046002800D0E7E561
:1057B0000FE60D9B1B78099329E70D9B22001878B3
:1057C00059463300A8474C46A0E60D9AFA3BFF3BEA
:1057D00007329A430133994691444B460D9313681F
:1057E000526815921A4306D1103290430022099252
:1057F000002900D083E06122810600D54122D2B287
:105800000A9214AA91460A9A00210A3A0B92424639
:105810001792524618925A46B24609911E001F31FD
:10582000149B4944BB4616941A9500246746984633
:105830008946159D19901B920AE03032D2B24B4630
:1058400001341A55A8454CD0202C4CD006000D0030
:105850003A00002330002900FDF7F2FFD2B2092AF6
:10586000EBD90B9B9C466244D2B2E8E75545001049
:105870006123820600D54123DBB20A3B0B934346EA
:1058800014A91F228C46159353466244B2460D94C8
:1058900017974C468046A9461700099D0F9E169300
:1058A00008E03033DBB201343B55B5420ED3202C37
:1058B0000CD0050031002800FDF784FFCBB2092988
:1058C000EFD90B9A94466344DBB2ECE7159B404654
:1058D0009846169B4D465646A1469A460D9C179FE4
:1058E0009FE6B742B0D9179B56469846189B5F462D
:1058F0009A461B9B09949B46169C19981A9D4346F1
:105900000593534604930F9B069003930023029341
:10591000099B01931CAB22000093594633002800D9
:10592000FEF770FE0400FFF7DFFB10230B9A9A438B
:105930000F92692800D091E10B9980230A00DB00C7
:105940001A4010000A00194203D0112118008A439E
:105950000F920F9A802311009B0019408C461A4227
:105960005BD1802311005B00194089460D990431F9
:105970000B911A4200D0B2E013005B0600D4EDE0B8
:105980000D9B1B781A00D90F0D91002B00D1A3E0BD
:10599000100014AA944642461F23159252466344AF
:1059A000A846BA464D461494B14604001F0016920C
:1059B00001E0202D0FD020000A21FDF703FF013563
:1059C0007E193031317020000A21FDF7FBFE2600E0
:1059D0000400092EEDD8159B4E46A946454698462B
:1059E000169B57469A46149C0F9B06934346059375
:1059F000534604930A2303930D9B02934B46019352
:105A00001CAB22000093594633002800FEF7FAFD34
:105A10000B9B04000D93FFF767FB07220D9B0733D9
:105A20009343013294469C4462460D920CCBD90FAD
:105A30000B911100194300D19BE0D91713911291DA
:105A40005140109113995940119110981199129A3F
:105A5000139B801A99411090119114AA94464246C2
:105A60000023159252469946169232001F33634422
:105A7000A8464E46BA4614941F00109C119D9146AC
:105A800001E0202E10D0200029000A220023FDF77B
:105A9000D7FE013630322B00BA550D00220004002B
:105AA000002BEED1092AECD8159B10941195454690
:105AB00098464B46169AB14657461E009246149C8D
:105AC0000F9B069343460593534604930A2303937F
:105AD0000B9B02934B461CE7002885D159E70D9B91
